{
  "contractName": "TimeCapsule",
  "abi": [
    {
      "inputs": [
        {
          "internalType": "uint256",
          "name": "_unlockTime",
          "type": "uint256"
        },
        {
          "internalType": "string",
          "name": "_capsuleMessage",
          "type": "string"
        }
      ],
      "stateMutability": "nonpayable",
      "type": "constructor"
    },
    {
      "anonymous": false,
      "inputs": [
        {
          "indexed": true,
          "internalType": "address",
          "name": "owner",
          "type": "address"
        },
        {
          "indexed": false,
          "internalType": "uint256",
          "name": "unlockTime",
          "type": "uint256"
        }
      ],
      "name": "CapsuleCreated",
      "type": "event"
    },
    {
      "anonymous": false,
      "inputs": [
        {
          "indexed": true,
          "internalType": "address",
          "name": "owner",
          "type": "address"
        },
        {
          "indexed": false,
          "internalType": "uint256",
          "name": "unlockTime",
          "type": "uint256"
        }
      ],
      "name": "CapsuleUnlocked",
      "type": "event"
    },
    {
      "inputs": [],
      "name": "capsuleMessage",
      "outputs": [
        {
          "internalType": "string",
          "name": "",
          "type": "string"
        }
      ],
      "stateMutability": "view",
      "type": "function"
    },
    {
      "inputs": [],
      "name": "isUnlocked",
      "outputs": [
        {
          "internalType": "bool",
          "name": "",
          "type": "bool"
        }
      ],
      "stateMutability": "view",
      "type": "function"
    },
    {
      "inputs": [],
      "name": "owner",
      "outputs": [
        {
          "internalType": "address",
          "name": "",
          "type": "address"
        }
      ],
      "stateMutability": "view",
      "type": "function"
    },
    {
      "inputs": [],
      "name": "unlockTime",
      "outputs": [
        {
          "internalType": "uint256",
          "name": "",
          "type": "uint256"
        }
      ],
      "stateMutability": "view",
      "type": "function"
    },
    {
      "inputs": [],
      "name": "unlockCapsule",
      "outputs": [],
      "stateMutability": "nonpayable",
      "type": "function"
    },
    {
      "inputs": [],
      "name": "getCapsuleMessage",
      "outputs": [
        {
          "internalType": "string",
          "name": "",
          "type": "string"
        }
      ],
      "stateMutability": "view",
      "type": "function"
    },
    {
      "inputs": [],
      "name": "unlockBeforeMaturity",
      "outputs": [],
      "stateMutability": "nonpayable",
      "type": "function"
    }
  ],
  "bytecode": "0x608060405234801562000010575f80fd5b506040516200109438038062001094833981810160405281019062000036919062000347565b4282116200007b576040517f08c379a000000000000000000000000000000000000000000000000000000000815260040162000072906200042f565b60405180910390fd5b5f815111620000c1576040517f08c379a0000000000000000000000000000000000000000000000000000000008152600401620000b8906200049d565b60405180910390fd5b335f806101000a81548173ffffffffffffffffffffffffffffffffffffffff021916908373ffffffffffffffffffffffffffffffffffffffff160217905550816001819055508060029081620001189190620006eb565b505f60035f6101000a81548160ff0219169083151502179055503373ffffffffffffffffffffffffffffffffffffffff167fb6d5a53adf9feebfd8fe1b61c8c721b6be115ea05e7b31f389a6b7a82a6540e3836040516200017a9190620007e0565b60405180910390a25050620007fb565b5f604051905090565b5f80fd5b5f80fd5b5f819050919050565b620001af816200019b565b8114620001ba575f80fd5b50565b5f81519050620001cd81620001a4565b92915050565b5f80fd5b5f80fd5b5f601f19601f8301169050919050565b7f4e487b71000000000000000000000000000000000000000000000000000000005f52604160045260245ffd5b6200022382620001db565b810181811067ffffffffffffffff82111715620002455762000244620001eb565b5b80604052505050565b5f620002596200018a565b905062000267828262000218565b919050565b5f67ffffffffffffffff821115620002895762000288620001eb565b5b6200029482620001db565b9050602081019050919050565b5f5b83811015620002c0578082015181840152602081019050620002a3565b5f8484015250505050565b5f620002e1620002db846200026c565b6200024e565b9050828152602081018484840111156200030057620002ff620001d7565b5b6200030d848285620002a1565b509392505050565b5f82601f8301126200032c576200032b620001d3565b5b81516200033e848260208601620002cb565b91505092915050565b5f806040838503121562000360576200035f62000193565b5b5f6200036f85828601620001bd565b925050602083015167ffffffffffffffff81111562000393576200039262000197565b5b620003a18582860162000315565b9150509250929050565b5f82825260208201905092915050565b7f556e6c6f636b2074696d65206d75737420626520696e207468652066757475725f8201527f6500000000000000000000000000000000000000000000000000000000000000602082015250565b5f62000417602183620003ab565b91506200042482620003bb565b604082019050919050565b5f6020820190508181035f830152620004488162000409565b9050919050565b7f4d6573736167652063616e6e6f7420626520656d7074790000000000000000005f82015250565b5f62000485601783620003ab565b915062000492826200044f565b602082019050919050565b5f6020820190508181035f830152620004b68162000477565b9050919050565b5f81519050919050565b7f4e487b71000000000000000000000000000000000000000000000000000000005f52602260045260245ffd5b5f60028204905060018216806200050c57607f821691505b602082108103620005225762000521620004c7565b5b50919050565b5f819050815f5260205f209050919050565b5f6020601f8301049050919050565b5f82821b905092915050565b5f60088302620005867fffffffffffffffffffffffffffffffffffffffffffffffffffffffffffffffff8262000549565b62000592868362000549565b95508019841693508086168417925050509392505050565b5f819050919050565b5f620005d3620005cd620005c7846200019b565b620005aa565b6200019b565b9050919050565b5f819050919050565b620005ee83620005b3565b62000606620005fd82620005da565b84845462000555565b825550505050565b5f90565b6200061c6200060e565b62000629818484620005e3565b505050565b5b818110156200065057620006445f8262000612565b6001810190506200062f565b5050565b601f8211156200069f57620006698162000528565b62000674846200053a565b8101602085101562000684578190505b6200069c62000693856200053a565b8301826200062e565b50505b505050565b5f82821c905092915050565b5f620006c15f1984600802620006a4565b1980831691505092915050565b5f620006db8383620006b0565b9150826002028217905092915050565b620006f682620004bd565b67ffffffffffffffff811115620007125762000711620001eb565b5b6200071e8254620004f4565b6200072b82828562000654565b5f60209050601f83116001811462000761575f84156200074c578287015190505b620007588582620006ce565b865550620007c7565b601f198416620007718662000528565b5f5b828110156200079a5784890151825560018201915060208501945060208101905062000773565b86831015620007ba5784890151620007b6601f891682620006b0565b8355505b6001600288020188555050505b505050505050565b620007da816200019b565b82525050565b5f602082019050620007f55f830184620007cf565b92915050565b61088b80620008095f395ff3fe608060405234801561000f575f80fd5b506004361061007b575f3560e01c80638380edb7116100595780638380edb7146100b15780638da5cb5b146100cf578063ba228697146100ed578063ecf453cb1461010b5761007b565b806312d853e11461007f578063251c1aa314610089578063773dba7e146100a7575b5f80fd5b610087610129565b005b61009161022d565b60405161009e9190610526565b60405180910390f35b6100af610233565b005b6100b961032a565b6040516100c69190610559565b60405180910390f35b6100d761033c565b6040516100e491906105b1565b60405180910390f35b6100f561035f565b6040516101029190610654565b60405180910390f35b6101136103eb565b6040516101209190610654565b60405180910390f35b5f8054906101000a900473ffffffffffffffffffffffffffffffffffffffff1673ffffffffffffffffffffffffffffffffffffffff163373ffffffffffffffffffffffffffffffffffffffff16148061018457506001544210155b6101c3576040517f08c379a00000000000000000000000000000000000000000000000000000000081526004016101ba906106e4565b60405180910390fd5b600160035f6101000a81548160ff0219169083151502179055503373ffffffffffffffffffffffffffffffffffffffff167f1eef9913bcbf9ca33844966f8e25fe99646ec46ed4c7e21f3080cd8312784360426040516102239190610526565b60405180910390a2565b60015481565b5f8054906101000a900473ffffffffffffffffffffffffffffffffffffffff1673ffffffffffffffffffffffffffffffffffffffff163373ffffffffffffffffffffffffffffffffffffffff16146102c0576040517f08c379a00000000000000000000000000000000000000000000000000000000081526004016102b79061074c565b60405180910390fd5b600160035f6101000a81548160ff0219169083151502179055503373ffffffffffffffffffffffffffffffffffffffff167f1eef9913bcbf9ca33844966f8e25fe99646ec46ed4c7e21f3080cd8312784360426040516103209190610526565b60405180910390a2565b60035f9054906101000a900460ff1681565b5f8054906101000a900473ffffffffffffffffffffffffffffffffffffffff1681565b6002805461036c90610797565b80601f016020809104026020016040519081016040528092919081815260200182805461039890610797565b80156103e35780601f106103ba576101008083540402835291602001916103e3565b820191905f5260205f20905b8154815290600101906020018083116103c657829003601f168201915b505050505081565b6060600154421015610432576040517f08c379a000000000000000000000000000000000000000000000000000000000815260040161042990610837565b60405180910390fd5b60035f9054906101000a900460ff16610480576040517f08c379a000000000000000000000000000000000000000000000000000000000815260040161047790610837565b60405180910390fd5b6002805461048d90610797565b80601f01602080910402602001604051908101604052809291908181526020018280546104b990610797565b80156105045780601f106104db57610100808354040283529160200191610504565b820191905f5260205f20905b8154815290600101906020018083116104e757829003601f168201915b5050505050905090565b5f819050919050565b6105208161050e565b82525050565b5f6020820190506105395f830184610517565b92915050565b5f8115159050919050565b6105538161053f565b82525050565b5f60208201905061056c5f83018461054a565b92915050565b5f73ffffffffffffffffffffffffffffffffffffffff82169050919050565b5f61059b82610572565b9050919050565b6105ab81610591565b82525050565b5f6020820190506105c45f8301846105a2565b92915050565b5f81519050919050565b5f82825260208201905092915050565b5f5b838110156106015780820151818401526020810190506105e6565b5f8484015250505050565b5f601f19601f8301169050919050565b5f610626826105ca565b61063081856105d4565b93506106408185602086016105e4565b6106498161060c565b840191505092915050565b5f6020820190508181035f83015261066c818461061c565b905092915050565b7f596f752063616e6e6f7420756e6c6f636b207468652063617073756c652079655f8201527f742e000000000000000000000000000000000000000000000000000000000000602082015250565b5f6106ce6022836105d4565b91506106d982610674565b604082019050919050565b5f6020820190508181035f8301526106fb816106c2565b9050919050565b7f596f7520617265206e6f7420746865206f776e657221000000000000000000005f82015250565b5f6107366016836105d4565b915061074182610702565b602082019050919050565b5f6020820190508181035f8301526107638161072a565b9050919050565b7f4e487b71000000000000000000000000000000000000000000000000000000005f52602260045260245ffd5b5f60028204905060018216806107ae57607f821691505b6020821081036107c1576107c061076a565b5b50919050565b7f5468652074696d652063617073756c65206973207374696c6c206c6f636b65645f8201527f2e00000000000000000000000000000000000000000000000000000000000000602082015250565b5f6108216021836105d4565b915061082c826107c7565b604082019050919050565b5f6020820190508181035f83015261084e81610815565b905091905056fea264697066735822122004369c220ce520b4d80cf85f047b101fa4752cdf00b02856f399f30ff13af2bc64736f6c63430008150033",
  "immutableReferences": {},
  "source": "// SPDX-License-Identifier: MIT\r\npragma solidity ^0.8.0;\r\n\r\ncontract TimeCapsule {\r\n\r\n    address public owner;\r\n    uint256 public unlockTime;\r\n    string public capsuleMessage;\r\n    bool public isUnlocked;\r\n\r\n    event CapsuleCreated(address indexed owner, uint256 unlockTime);\r\n    event CapsuleUnlocked(address indexed owner, uint256 unlockTime);\r\n\r\n    constructor(uint256 _unlockTime, string memory _capsuleMessage) {\r\n        require(_unlockTime > block.timestamp, \"Unlock time must be in the future\");\r\n        require(bytes(_capsuleMessage).length > 0, \"Message cannot be empty\");\r\n\r\n        owner = msg.sender;\r\n        unlockTime = _unlockTime;\r\n        capsuleMessage = _capsuleMessage;\r\n        isUnlocked = false;\r\n        emit CapsuleCreated(msg.sender, _unlockTime);\r\n    }\r\n\r\n    modifier onlyOwner() {\r\n        require(msg.sender == owner, \"You are not the owner!\");\r\n        _;\r\n    }\r\n\r\n    modifier onlyAfterUnlockTime() {\r\n        require(block.timestamp >= unlockTime, \"The time capsule is still locked.\");\r\n        _;\r\n    }\r\n\r\n    modifier canUnlock() {\r\n        require(msg.sender == owner || block.timestamp >= unlockTime, \"You cannot unlock the capsule yet.\");\r\n        _;\r\n    }\r\n\r\n    // Function to unlock the time capsule\r\n    function unlockCapsule() public canUnlock {\r\n        isUnlocked = true;\r\n        emit CapsuleUnlocked(msg.sender, block.timestamp);\r\n    }\r\n\r\n    // Function to view the capsule's message after its unlocked\r\n    function getCapsuleMessage() public view onlyAfterUnlockTime returns (string memory) {\r\n        require(isUnlocked, \"The time capsule is still locked.\");\r\n        return capsuleMessage;\r\n    }\r\n\r\n    // Owner can unlock anytime\r\n    function unlockBeforeMaturity() public onlyOwner {\r\n        isUnlocked = true;\r\n        emit CapsuleUnlocked(msg.sender, block.timestamp);\r\n    }\r\n}\r\n",
  "sourcePath": "E:\\Time-capsule-Blockchain\\contracts\\TimeCapsule.sol",
  "compiler": {
    "name": "solc",
    "version": "0.8.21+commit.d9974bed.Emscripten.clang"
  },
  "schemaVersion": "3.4.16",
  "updatedAt": "2025-03-28T07:59:27.094Z",
  "devdoc": {
    "kind": "dev",
    "methods": {},
    "version": 1
  },
  "userdoc": {
    "kind": "user",
    "methods": {},
    "version": 1
  }
}